{
  "_format": "hh-sol-artifact-1",
  "contractName": "CrowdfundingPlatform",
  "sourceName": "contracts/Crowdfunding.sol",
  "abi": [
    {
      "inputs": [],
      "stateMutability": "nonpayable",
      "type": "constructor"
    },
    {
      "anonymous": false,
      "inputs": [
        {
          "indexed": false,
          "internalType": "address",
          "name": "newAdmin",
          "type": "address"
        }
      ],
      "name": "AdminChanged",
      "type": "event"
    },
    {
      "anonymous": false,
      "inputs": [
        {
          "indexed": false,
          "internalType": "uint256",
          "name": "campaignId",
          "type": "uint256"
        },
        {
          "indexed": false,
          "internalType": "address",
          "name": "owner",
          "type": "address"
        },
        {
          "indexed": false,
          "internalType": "string",
          "name": "title",
          "type": "string"
        }
      ],
      "name": "CampaignCreated",
      "type": "event"
    },
    {
      "anonymous": false,
      "inputs": [
        {
          "indexed": false,
          "internalType": "uint256",
          "name": "campaignId",
          "type": "uint256"
        }
      ],
      "name": "CampaignDeleted",
      "type": "event"
    },
    {
      "anonymous": false,
      "inputs": [
        {
          "indexed": false,
          "internalType": "uint256",
          "name": "campaignId",
          "type": "uint256"
        }
      ],
      "name": "CampaignStopped",
      "type": "event"
    },
    {
      "anonymous": false,
      "inputs": [
        {
          "indexed": false,
          "internalType": "uint256",
          "name": "campaignId",
          "type": "uint256"
        },
        {
          "indexed": false,
          "internalType": "address",
          "name": "donor",
          "type": "address"
        },
        {
          "indexed": false,
          "internalType": "uint256",
          "name": "amount",
          "type": "uint256"
        }
      ],
      "name": "DonationMade",
      "type": "event"
    },
    {
      "anonymous": false,
      "inputs": [
        {
          "indexed": false,
          "internalType": "uint256",
          "name": "campaignId",
          "type": "uint256"
        },
        {
          "indexed": false,
          "internalType": "uint256",
          "name": "amount",
          "type": "uint256"
        }
      ],
      "name": "FundsWithdrawn",
      "type": "event"
    },
    {
      "anonymous": false,
      "inputs": [
        {
          "indexed": false,
          "internalType": "uint256",
          "name": "campaignId",
          "type": "uint256"
        },
        {
          "indexed": false,
          "internalType": "uint256",
          "name": "milestone",
          "type": "uint256"
        }
      ],
      "name": "MilestoneReached",
      "type": "event"
    },
    {
      "inputs": [],
      "name": "admin",
      "outputs": [
        {
          "internalType": "address",
          "name": "",
          "type": "address"
        }
      ],
      "stateMutability": "view",
      "type": "function"
    },
    {
      "inputs": [
        {
          "internalType": "uint256",
          "name": "_campaignId",
          "type": "uint256"
        }
      ],
      "name": "adminDeleteCampaign",
      "outputs": [],
      "stateMutability": "nonpayable",
      "type": "function"
    },
    {
      "inputs": [
        {
          "internalType": "uint256",
          "name": "",
          "type": "uint256"
        }
      ],
      "name": "campaigns",
      "outputs": [
        {
          "internalType": "address",
          "name": "owner",
          "type": "address"
        },
        {
          "internalType": "string",
          "name": "title",
          "type": "string"
        },
        {
          "internalType": "string",
          "name": "description",
          "type": "string"
        },
        {
          "internalType": "string",
          "name": "imageHash",
          "type": "string"
        },
        {
          "internalType": "uint256",
          "name": "goalAmount",
          "type": "uint256"
        },
        {
          "internalType": "uint256",
          "name": "totalRaised",
          "type": "uint256"
        },
        {
          "internalType": "bool",
          "name": "isActive",
          "type": "bool"
        },
        {
          "internalType": "uint256",
          "name": "currentMilestone",
          "type": "uint256"
        },
        {
          "internalType": "bool",
          "name": "exists",
          "type": "bool"
        }
      ],
      "stateMutability": "view",
      "type": "function"
    },
    {
      "inputs": [
        {
          "internalType": "address",
          "name": "_newAdmin",
          "type": "address"
        }
      ],
      "name": "changeAdmin",
      "outputs": [],
      "stateMutability": "nonpayable",
      "type": "function"
    },
    {
      "inputs": [
        {
          "internalType": "string",
          "name": "_title",
          "type": "string"
        },
        {
          "internalType": "string",
          "name": "_description",
          "type": "string"
        },
        {
          "internalType": "string",
          "name": "_imageHash",
          "type": "string"
        },
        {
          "internalType": "uint256",
          "name": "_goalAmount",
          "type": "uint256"
        },
        {
          "internalType": "uint256[]",
          "name": "_milestones",
          "type": "uint256[]"
        }
      ],
      "name": "createCampaign",
      "outputs": [],
      "stateMutability": "nonpayable",
      "type": "function"
    },
    {
      "inputs": [
        {
          "internalType": "uint256",
          "name": "_campaignId",
          "type": "uint256"
        }
      ],
      "name": "deleteCampaign",
      "outputs": [],
      "stateMutability": "nonpayable",
      "type": "function"
    },
    {
      "inputs": [
        {
          "internalType": "uint256",
          "name": "_campaignId",
          "type": "uint256"
        }
      ],
      "name": "donate",
      "outputs": [],
      "stateMutability": "payable",
      "type": "function"
    },
    {
      "inputs": [
        {
          "internalType": "uint256",
          "name": "",
          "type": "uint256"
        },
        {
          "internalType": "address",
          "name": "",
          "type": "address"
        }
      ],
      "name": "donations",
      "outputs": [
        {
          "internalType": "uint256",
          "name": "",
          "type": "uint256"
        }
      ],
      "stateMutability": "view",
      "type": "function"
    },
    {
      "inputs": [],
      "name": "getActiveCampaignCount",
      "outputs": [
        {
          "internalType": "uint256",
          "name": "count",
          "type": "uint256"
        }
      ],
      "stateMutability": "view",
      "type": "function"
    },
    {
      "inputs": [
        {
          "internalType": "uint256",
          "name": "_campaignId",
          "type": "uint256"
        }
      ],
      "name": "getCampaign",
      "outputs": [
        {
          "internalType": "address",
          "name": "owner",
          "type": "address"
        },
        {
          "internalType": "string",
          "name": "title",
          "type": "string"
        },
        {
          "internalType": "string",
          "name": "description",
          "type": "string"
        },
        {
          "internalType": "string",
          "name": "imageHash",
          "type": "string"
        },
        {
          "internalType": "uint256",
          "name": "goalAmount",
          "type": "uint256"
        },
        {
          "internalType": "uint256",
          "name": "totalRaised",
          "type": "uint256"
        },
        {
          "internalType": "bool",
          "name": "isActive",
          "type": "bool"
        },
        {
          "internalType": "uint256[]",
          "name": "milestones",
          "type": "uint256[]"
        },
        {
          "internalType": "uint256",
          "name": "currentMilestone",
          "type": "uint256"
        }
      ],
      "stateMutability": "view",
      "type": "function"
    },
    {
      "inputs": [],
      "name": "getCampaignCount",
      "outputs": [
        {
          "internalType": "uint256",
          "name": "",
          "type": "uint256"
        }
      ],
      "stateMutability": "view",
      "type": "function"
    },
    {
      "inputs": [
        {
          "internalType": "address",
          "name": "_user",
          "type": "address"
        }
      ],
      "name": "getUserCampaigns",
      "outputs": [
        {
          "internalType": "uint256[]",
          "name": "",
          "type": "uint256[]"
        }
      ],
      "stateMutability": "view",
      "type": "function"
    },
    {
      "inputs": [
        {
          "internalType": "uint256",
          "name": "_campaignId",
          "type": "uint256"
        }
      ],
      "name": "refundDonation",
      "outputs": [],
      "stateMutability": "nonpayable",
      "type": "function"
    },
    {
      "inputs": [
        {
          "internalType": "uint256",
          "name": "_campaignId",
          "type": "uint256"
        }
      ],
      "name": "stopCampaign",
      "outputs": [],
      "stateMutability": "nonpayable",
      "type": "function"
    },
    {
      "inputs": [
        {
          "internalType": "uint256",
          "name": "_campaignId",
          "type": "uint256"
        }
      ],
      "name": "withdrawFunds",
      "outputs": [],
      "stateMutability": "nonpayable",
      "type": "function"
    }
  ],
  "bytecode": "0x608060405234801561001057600080fd5b50336000806101000a81548173ffffffffffffffffffffffffffffffffffffffff021916908373ffffffffffffffffffffffffffffffffffffffff16021790555061349f806100606000396000f3fe6080604052600436106100e85760003560e01c80638f2839701161008a578063ec6c821611610059578063ec6c821614610300578063ee1554a314610329578063f14faf6f14610366578063f851a44014610382576100e8565b80638f28397014610248578063a1e5084c14610271578063c671e52c146102ae578063e1bf17a2146102d7576100e8565b80635598f8cc116100c65780635598f8cc146101865780636caa9218146101cb578063709cacc2146101f6578063759701931461021f576100e8565b806301eac582146100ed578063141961bc14610118578063155dd5ee1461015d575b600080fd5b3480156100f957600080fd5b506101026103ad565b60405161010f9190611f7c565b60405180910390f35b34801561012457600080fd5b5061013f600480360381019061013a9190611fd7565b61045b565b604051610154999897969594939291906120f0565b60405180910390f35b34801561016957600080fd5b50610184600480360381019061017f9190611fd7565b61068b565b005b34801561019257600080fd5b506101ad60048036038101906101a89190611fd7565b610916565b6040516101c299989796959493929190612250565b60405180910390f35b3480156101d757600080fd5b506101e0610c71565b6040516101ed9190611f7c565b60405180910390f35b34801561020257600080fd5b5061021d60048036038101906102189190611fd7565b610c7e565b005b34801561022b57600080fd5b5061024660048036038101906102419190611fd7565b610eb0565b005b34801561025457600080fd5b5061026f600480360381019061026a9190612325565b6110df565b005b34801561027d57600080fd5b5061029860048036038101906102939190612325565b611256565b6040516102a59190612352565b60405180910390f35b3480156102ba57600080fd5b506102d560048036038101906102d09190611fd7565b6114a0565b005b3480156102e357600080fd5b506102fe60048036038101906102f99190612571565b6116f7565b005b34801561030c57600080fd5b5061032760048036038101906103229190611fd7565b611a33565b005b34801561033557600080fd5b50610350600480360381019061034b919061265c565b611bfe565b60405161035d9190611f7c565b60405180910390f35b610380600480360381019061037b9190611fd7565b611c23565b005b34801561038e57600080fd5b50610397611ed5565b6040516103a4919061269c565b60405180910390f35b600080600090505b60018054905081101561045757600181815481106103d6576103d56126b7565b5b90600052602060002090600a020160090160009054906101000a900460ff1680156104305750600181815481106104105761040f6126b7565b5b90600052602060002090600a020160060160009054906101000a900460ff165b1561044457818061044090612715565b9250505b808061044f90612715565b9150506103b5565b5090565b6001818154811061046b57600080fd5b90600052602060002090600a02016000915090508060000160009054906101000a900473ffffffffffffffffffffffffffffffffffffffff16908060010180546104b49061278c565b80601f01602080910402602001604051908101604052809291908181526020018280546104e09061278c565b801561052d5780601f106105025761010080835404028352916020019161052d565b820191906000526020600020905b81548152906001019060200180831161051057829003601f168201915b5050505050908060020180546105429061278c565b80601f016020809104026020016040519081016040528092919081815260200182805461056e9061278c565b80156105bb5780601f10610590576101008083540402835291602001916105bb565b820191906000526020600020905b81548152906001019060200180831161059e57829003601f168201915b5050505050908060030180546105d09061278c565b80601f01602080910402602001604051908101604052809291908181526020018280546105fc9061278c565b80156106495780601f1061061e57610100808354040283529160200191610649565b820191906000526020600020905b81548152906001019060200180831161062c57829003601f168201915b5050505050908060040154908060050154908060060160009054906101000a900460ff16908060080154908060090160009054906101000a900460ff16905089565b8060018054905081106106d3576040517f08c379a00000000000000000000000000000000000000000000000000000000081526004016106ca90612809565b60405180910390fd5b3373ffffffffffffffffffffffffffffffffffffffff16600182815481106106fe576106fd6126b7565b5b90600052602060002090600a020160000160009054906101000a900473ffffffffffffffffffffffffffffffffffffffff1673ffffffffffffffffffffffffffffffffffffffff1614610786576040517f08c379a000000000000000000000000000000000000000000000000000000000815260040161077d9061289b565b60405180910390fd5b60006001838154811061079c5761079b6126b7565b5b90600052602060002090600a0201905060008160050154116107f3576040517f08c379a00000000000000000000000000000000000000000000000000000000081526004016107ea90612907565b60405180910390fd5b6000816005015490506000826005018190555060008260000160009054906101000a900473ffffffffffffffffffffffffffffffffffffffff1673ffffffffffffffffffffffffffffffffffffffff168260405161085090612958565b60006040518083038185875af1925050503d806000811461088d576040519150601f19603f3d011682016040523d82523d6000602084013e610892565b606091505b50509050806108d6576040517f08c379a00000000000000000000000000000000000000000000000000000000081526004016108cd906129b9565b60405180910390fd5b7fd66662c0ded9e58fd31d5e44944bcfd07ffc15e6927ecc1382e7941cb7bd24c485836040516109079291906129d9565b60405180910390a15050505050565b600060608060606000806000606060006001805490508a1061096d576040517f08c379a000000000000000000000000000000000000000000000000000000000815260040161096490612809565b60405180910390fd5b60018a81548110610981576109806126b7565b5b90600052602060002090600a020160090160009054906101000a900460ff166109df576040517f08c379a00000000000000000000000000000000000000000000000000000000081526004016109d690612a4e565b60405180910390fd5b600060018b815481106109f5576109f46126b7565b5b90600052602060002090600a020190508060000160009054906101000a900473ffffffffffffffffffffffffffffffffffffffff16816001018260020183600301846004015485600501548660060160009054906101000a900460ff16876007018860080154878054610a679061278c565b80601f0160208091040260200160405190810160405280929190818152602001828054610a939061278c565b8015610ae05780601f10610ab557610100808354040283529160200191610ae0565b820191906000526020600020905b815481529060010190602001808311610ac357829003601f168201915b50505050509750868054610af39061278c565b80601f0160208091040260200160405190810160405280929190818152602001828054610b1f9061278c565b8015610b6c5780601f10610b4157610100808354040283529160200191610b6c565b820191906000526020600020905b815481529060010190602001808311610b4f57829003601f168201915b50505050509650858054610b7f9061278c565b80601f0160208091040260200160405190810160405280929190818152602001828054610bab9061278c565b8015610bf85780601f10610bcd57610100808354040283529160200191610bf8565b820191906000526020600020905b815481529060010190602001808311610bdb57829003601f168201915b5050505050955081805480602002602001604051908101604052809291908181526020018280548015610c4a57602002820191906000526020600020905b815481526020019060010190808311610c36575b50505050509150995099509950995099509950995099509950509193959799909294969850565b6000600180549050905090565b600060018281548110610c9457610c936126b7565b5b90600052602060002090600a020190508060090160009054906101000a900460ff161580610cd157508060060160009054906101000a900460ff16155b610d10576040517f08c379a0000000000000000000000000000000000000000000000000000000008152600401610d0790612aba565b60405180910390fd5b60006002600084815260200190815260200160002060003373ffffffffffffffffffffffffffffffffffffffff1673ffffffffffffffffffffffffffffffffffffffff16815260200190815260200160002054905060008111610da8576040517f08c379a0000000000000000000000000000000000000000000000000000000008152600401610d9f90612b26565b60405180910390fd5b60006002600085815260200190815260200160002060003373ffffffffffffffffffffffffffffffffffffffff1673ffffffffffffffffffffffffffffffffffffffff1681526020019081526020016000208190555060003373ffffffffffffffffffffffffffffffffffffffff1682604051610e2490612958565b60006040518083038185875af1925050503d8060008114610e61576040519150601f19603f3d011682016040523d82523d6000602084013e610e66565b606091505b5050905080610eaa576040517f08c379a0000000000000000000000000000000000000000000000000000000008152600401610ea190612b92565b60405180910390fd5b50505050565b806001805490508110610ef8576040517f08c379a0000000000000000000000000000000000000000000000000000000008152600401610eef90612809565b60405180910390fd5b3373ffffffffffffffffffffffffffffffffffffffff1660018281548110610f2357610f226126b7565b5b90600052602060002090600a020160000160009054906101000a900473ffffffffffffffffffffffffffffffffffffffff1673ffffffffffffffffffffffffffffffffffffffff1614610fab576040517f08c379a0000000000000000000000000000000000000000000000000000000008152600401610fa29061289b565b60405180910390fd5b600060018381548110610fc157610fc06126b7565b5b90600052602060002090600a020190508060090160009054906101000a900460ff16611022576040517f08c379a000000000000000000000000000000000000000000000000000000000815260040161101990612bfe565b60405180910390fd5b6000816005015414611069576040517f08c379a000000000000000000000000000000000000000000000000000000000815260040161106090612c90565b60405180910390fd5b60008160090160006101000a81548160ff02191690831515021790555060008160060160006101000a81548160ff0219169083151502179055507fa61e586bd6a065bde887af9ec4705829557488d3ccdea823ab66aafd7c3aa099836040516110d29190611f7c565b60405180910390a1505050565b60008054906101000a900473ffffffffffffffffffffffffffffffffffffffff1673ffffffffffffffffffffffffffffffffffffffff163373ffffffffffffffffffffffffffffffffffffffff161461116d576040517f08c379a000000000000000000000000000000000000000000000000000000000815260040161116490612d22565b60405180910390fd5b600073ffffffffffffffffffffffffffffffffffffffff168173ffffffffffffffffffffffffffffffffffffffff16036111dc576040517f08c379a00000000000000000000000000000000000000000000000000000000081526004016111d390612d8e565b60405180910390fd5b806000806101000a81548173ffffffffffffffffffffffffffffffffffffffff021916908373ffffffffffffffffffffffffffffffffffffffff1602179055507f7ce7ec0b50378fb6c0186ffb5f48325f6593fcb4ca4386f21861af3129188f5c8160405161124b919061269c565b60405180910390a150565b60606000805b60018054905081101561133f578373ffffffffffffffffffffffffffffffffffffffff1660018281548110611294576112936126b7565b5b90600052602060002090600a020160000160009054906101000a900473ffffffffffffffffffffffffffffffffffffffff1673ffffffffffffffffffffffffffffffffffffffff161480156113185750600181815481106112f8576112f76126b7565b5b90600052602060002090600a020160090160009054906101000a900460ff165b1561132c57818061132890612715565b9250505b808061133790612715565b91505061125c565b5060008167ffffffffffffffff81111561135c5761135b61237e565b5b60405190808252806020026020018201604052801561138a5781602001602082028036833780820191505090505b5090506000805b600180549050811015611494578573ffffffffffffffffffffffffffffffffffffffff16600182815481106113c9576113c86126b7565b5b90600052602060002090600a020160000160009054906101000a900473ffffffffffffffffffffffffffffffffffffffff1673ffffffffffffffffffffffffffffffffffffffff1614801561144d57506001818154811061142d5761142c6126b7565b5b90600052602060002090600a020160090160009054906101000a900460ff165b156114815780838381518110611466576114656126b7565b5b602002602001018181525050818061147d90612715565b9250505b808061148c90612715565b915050611391565b50819350505050919050565b60008054906101000a900473ffffffffffffffffffffffffffffffffffffffff1673ffffffffffffffffffffffffffffffffffffffff163373ffffffffffffffffffffffffffffffffffffffff161461152e576040517f08c379a000000000000000000000000000000000000000000000000000000000815260040161152590612d22565b60405180910390fd5b6001805490508110611575576040517f08c379a000000000000000000000000000000000000000000000000000000000815260040161156c90612809565b60405180910390fd5b60018181548110611589576115886126b7565b5b90600052602060002090600a020160090160009054906101000a900460ff166115e7576040517f08c379a00000000000000000000000000000000000000000000000000000000081526004016115de90612bfe565b60405180910390fd5b6000600182815481106115fd576115fc6126b7565b5b90600052602060002090600a02016005015411156116415760006001828154811061162b5761162a6126b7565b5b90600052602060002090600a0201600501819055505b600060018281548110611657576116566126b7565b5b90600052602060002090600a020160090160006101000a81548160ff021916908315150217905550600060018281548110611695576116946126b7565b5b90600052602060002090600a020160060160006101000a81548160ff0219169083151502179055507fa61e586bd6a065bde887af9ec4705829557488d3ccdea823ab66aafd7c3aa099816040516116ec9190611f7c565b60405180910390a150565b600085511161173b576040517f08c379a000000000000000000000000000000000000000000000000000000000815260040161173290612dfa565b60405180910390fd5b600084511161177f576040517f08c379a000000000000000000000000000000000000000000000000000000000815260040161177690612e66565b60405180910390fd5b60008351116117c3576040517f08c379a00000000000000000000000000000000000000000000000000000000081526004016117ba90612ed2565b60405180910390fd5b6000815111611807576040517f08c379a00000000000000000000000000000000000000000000000000000000081526004016117fe90612f3e565b60405180910390fd5b6000821161184a576040517f08c379a000000000000000000000000000000000000000000000000000000000815260040161184190612faa565b60405180910390fd5b60016040518061014001604052803373ffffffffffffffffffffffffffffffffffffffff16815260200187815260200186815260200185815260200184815260200160008152602001600115158152602001838152602001600081526020016001151581525090806001815401808255809150506001900390600052602060002090600a020160009091909190915060008201518160000160006101000a81548173ffffffffffffffffffffffffffffffffffffffff021916908373ffffffffffffffffffffffffffffffffffffffff16021790555060208201518160010190816119359190613176565b50604082015181600201908161194b9190613176565b5060608201518160030190816119619190613176565b506080820151816004015560a0820151816005015560c08201518160060160006101000a81548160ff02191690831515021790555060e08201518160070190805190602001906119b2929190611ef9565b5061010082015181600801556101208201518160090160006101000a81548160ff02191690831515021790555050507fc04c663886cae794dc52158f70fe6c8ee3b0140d4f48647282f9b693ff688a6560018080549050611a139190613248565b3387604051611a249392919061327c565b60405180910390a15050505050565b806001805490508110611a7b576040517f08c379a0000000000000000000000000000000000000000000000000000000008152600401611a7290612809565b60405180910390fd5b3373ffffffffffffffffffffffffffffffffffffffff1660018281548110611aa657611aa56126b7565b5b90600052602060002090600a020160000160009054906101000a900473ffffffffffffffffffffffffffffffffffffffff1673ffffffffffffffffffffffffffffffffffffffff1614611b2e576040517f08c379a0000000000000000000000000000000000000000000000000000000008152600401611b259061289b565b60405180910390fd5b600060018381548110611b4457611b436126b7565b5b90600052602060002090600a020190508060060160009054906101000a900460ff16611ba5576040517f08c379a0000000000000000000000000000000000000000000000000000000008152600401611b9c90613306565b60405180910390fd5b60008160060160006101000a81548160ff0219169083151502179055507fe5a1604ff203dc76ea2a38c81e2ae18d95023f1ed66e4520e4f7f96e4c5daf2883604051611bf19190611f7c565b60405180910390a1505050565b6002602052816000526040600020602052806000526040600020600091509150505481565b6001805490508110611c6a576040517f08c379a0000000000000000000000000000000000000000000000000000000008152600401611c6190612809565b60405180910390fd5b600060018281548110611c8057611c7f6126b7565b5b90600052602060002090600a020190508060090160009054906101000a900460ff16611ce1576040517f08c379a0000000000000000000000000000000000000000000000000000000008152600401611cd890612a4e565b60405180910390fd5b8060060160009054906101000a900460ff16611d32576040517f08c379a0000000000000000000000000000000000000000000000000000000008152600401611d2990613372565b60405180910390fd5b60003411611d75576040517f08c379a0000000000000000000000000000000000000000000000000000000008152600401611d6c906133de565b60405180910390fd5b34816005016000828254611d8991906133fe565b92505081905550346002600084815260200190815260200160002060003373ffffffffffffffffffffffffffffffffffffffff1673ffffffffffffffffffffffffffffffffffffffff1681526020019081526020016000206000828254611df091906133fe565b925050819055507fe555da28bdb778f65d22794d88927ebaeca03f7de9d1b7d39245bc8fb5ca078a823334604051611e2a93929190613432565b60405180910390a180600701805490508160080154108015611e74575080600701816008015481548110611e6157611e606126b7565b5b9060005260206000200154816005015410155b15611ed157806008016000815480929190611e8e90612715565b91905055507fe5f196b7c35531c9cdf28ee121967688b244c8557b574489a6182e8f66c929d3828260080154604051611ec89291906129d9565b60405180910390a15b5050565b60008054906101000a900473ffffffffffffffffffffffffffffffffffffffff1681565b828054828255906000526020600020908101928215611f35579160200282015b82811115611f34578251825591602001919060010190611f19565b5b509050611f429190611f46565b5090565b5b80821115611f5f576000816000905550600101611f47565b5090565b6000819050919050565b611f7681611f63565b82525050565b6000602082019050611f916000830184611f6d565b92915050565b6000604051905090565b600080fd5b600080fd5b611fb481611f63565b8114611fbf57600080fd5b50565b600081359050611fd181611fab565b92915050565b600060208284031215611fed57611fec611fa1565b5b6000611ffb84828501611fc2565b91505092915050565b600073ffffffffffffffffffffffffffffffffffffffff82169050919050565b600061202f82612004565b9050919050565b61203f81612024565b82525050565b600081519050919050565b600082825260208201905092915050565b60005b8381101561207f578082015181840152602081019050612064565b60008484015250505050565b6000601f19601f8301169050919050565b60006120a782612045565b6120b18185612050565b93506120c1818560208601612061565b6120ca8161208b565b840191505092915050565b60008115159050919050565b6120ea816120d5565b82525050565b600061012082019050612106600083018c612036565b8181036020830152612118818b61209c565b9050818103604083015261212c818a61209c565b90508181036060830152612140818961209c565b905061214f6080830188611f6d565b61215c60a0830187611f6d565b61216960c08301866120e1565b61217660e0830185611f6d565b6121846101008301846120e1565b9a9950505050505050505050565b600081519050919050565b600082825260208201905092915050565b6000819050602082019050919050565b6121c781611f63565b82525050565b60006121d983836121be565b60208301905092915050565b6000602082019050919050565b60006121fd82612192565b612207818561219d565b9350612212836121ae565b8060005b8381101561224357815161222a88826121cd565b9750612235836121e5565b925050600181019050612216565b5085935050505092915050565b600061012082019050612266600083018c612036565b8181036020830152612278818b61209c565b9050818103604083015261228c818a61209c565b905081810360608301526122a0818961209c565b90506122af6080830188611f6d565b6122bc60a0830187611f6d565b6122c960c08301866120e1565b81810360e08301526122db81856121f2565b90506122eb610100830184611f6d565b9a9950505050505050505050565b61230281612024565b811461230d57600080fd5b50565b60008135905061231f816122f9565b92915050565b60006020828403121561233b5761233a611fa1565b5b600061234984828501612310565b91505092915050565b6000602082019050818103600083015261236c81846121f2565b905092915050565b600080fd5b600080fd5b7f4e487b7100000000000000000000000000000000000000000000000000000000600052604160045260246000fd5b6123b68261208b565b810181811067ffffffffffffffff821117156123d5576123d461237e565b5b80604052505050565b60006123e8611f97565b90506123f482826123ad565b919050565b600067ffffffffffffffff8211156124145761241361237e565b5b61241d8261208b565b9050602081019050919050565b82818337600083830152505050565b600061244c612447846123f9565b6123de565b90508281526020810184848401111561246857612467612379565b5b61247384828561242a565b509392505050565b600082601f8301126124905761248f612374565b5b81356124a0848260208601612439565b91505092915050565b600067ffffffffffffffff8211156124c4576124c361237e565b5b602082029050602081019050919050565b600080fd5b60006124ed6124e8846124a9565b6123de565b905080838252602082019050602084028301858111156125105761250f6124d5565b5b835b8181101561253957806125258882611fc2565b845260208401935050602081019050612512565b5050509392505050565b600082601f83011261255857612557612374565b5b81356125688482602086016124da565b91505092915050565b600080600080600060a0868803121561258d5761258c611fa1565b5b600086013567ffffffffffffffff8111156125ab576125aa611fa6565b5b6125b78882890161247b565b955050602086013567ffffffffffffffff8111156125d8576125d7611fa6565b5b6125e48882890161247b565b945050604086013567ffffffffffffffff81111561260557612604611fa6565b5b6126118882890161247b565b935050606061262288828901611fc2565b925050608086013567ffffffffffffffff81111561264357612642611fa6565b5b61264f88828901612543565b9150509295509295909350565b6000806040838503121561267357612672611fa1565b5b600061268185828601611fc2565b925050602061269285828601612310565b9150509250929050565b60006020820190506126b16000830184612036565b92915050565b7f4e487b7100000000000000000000000000000000000000000000000000000000600052603260045260246000fd5b7f4e487b7100000000000000000000000000000000000000000000000000000000600052601160045260246000fd5b600061272082611f63565b91507fffffffffffffffffffffffffffffffffffffffffffffffffffffffffffffffff8203612752576127516126e6565b5b600182019050919050565b7f4e487b7100000000000000000000000000000000000000000000000000000000600052602260045260246000fd5b600060028204905060018216806127a457607f821691505b6020821081036127b7576127b661275d565b5b50919050565b7f496e76616c69642063616d706169676e20494400000000000000000000000000600082015250565b60006127f3601383612050565b91506127fe826127bd565b602082019050919050565b60006020820190508181036000830152612822816127e6565b9050919050565b7f4f6e6c792063616d706169676e206f776e65722063616e20706572666f726d2060008201527f7468697320616374696f6e000000000000000000000000000000000000000000602082015250565b6000612885602b83612050565b915061289082612829565b604082019050919050565b600060208201905081810360008301526128b481612878565b9050919050565b7f4e6f2066756e647320746f207769746864726177000000000000000000000000600082015250565b60006128f1601483612050565b91506128fc826128bb565b602082019050919050565b60006020820190508181036000830152612920816128e4565b9050919050565b600081905092915050565b50565b6000612942600083612927565b915061294d82612932565b600082019050919050565b600061296382612935565b9150819050919050565b7f4661696c656420746f2073656e64204574686572000000000000000000000000600082015250565b60006129a3601483612050565b91506129ae8261296d565b602082019050919050565b600060208201905081810360008301526129d281612996565b9050919050565b60006040820190506129ee6000830185611f6d565b6129fb6020830184611f6d565b9392505050565b7f43616d706169676e20646f6573206e6f74206578697374000000000000000000600082015250565b6000612a38601783612050565b9150612a4382612a02565b602082019050919050565b60006020820190508181036000830152612a6781612a2b565b9050919050565b7f43616d706169676e207374696c6c206163746976650000000000000000000000600082015250565b6000612aa4601583612050565b9150612aaf82612a6e565b602082019050919050565b60006020820190508181036000830152612ad381612a97565b9050919050565b7f4e6f20646f6e6174696f6e7320746f20726566756e6400000000000000000000600082015250565b6000612b10601683612050565b9150612b1b82612ada565b602082019050919050565b60006020820190508181036000830152612b3f81612b03565b9050919050565b7f526566756e64206661696c656400000000000000000000000000000000000000600082015250565b6000612b7c600d83612050565b9150612b8782612b46565b602082019050919050565b60006020820190508181036000830152612bab81612b6f565b9050919050565b7f43616d706169676e20616c72656164792064656c657465640000000000000000600082015250565b6000612be8601883612050565b9150612bf382612bb2565b602082019050919050565b60006020820190508181036000830152612c1781612bdb565b9050919050565b7f43616e6e6f742064656c6574652063616d706169676e20776974682066756e6460008201527f7300000000000000000000000000000000000000000000000000000000000000602082015250565b6000612c7a602183612050565b9150612c8582612c1e565b604082019050919050565b60006020820190508181036000830152612ca981612c6d565b9050919050565b7f4f6e6c792061646d696e2063616e20706572666f726d2074686973206163746960008201527f6f6e000000000000000000000000000000000000000000000000000000000000602082015250565b6000612d0c602283612050565b9150612d1782612cb0565b604082019050919050565b60006020820190508181036000830152612d3b81612cff565b9050919050565b7f496e76616c696420616464726573730000000000000000000000000000000000600082015250565b6000612d78600f83612050565b9150612d8382612d42565b602082019050919050565b60006020820190508181036000830152612da781612d6b565b9050919050565b7f5469746c652063616e6e6f7420626520656d7074790000000000000000000000600082015250565b6000612de4601583612050565b9150612def82612dae565b602082019050919050565b60006020820190508181036000830152612e1381612dd7565b9050919050565b7f4465736372697074696f6e2063616e6e6f7420626520656d7074790000000000600082015250565b6000612e50601b83612050565b9150612e5b82612e1a565b602082019050919050565b60006020820190508181036000830152612e7f81612e43565b9050919050565b7f496d61676520686173682063616e6e6f7420626520656d707479000000000000600082015250565b6000612ebc601a83612050565b9150612ec782612e86565b602082019050919050565b60006020820190508181036000830152612eeb81612eaf565b9050919050565b7f4174206c65617374206f6e65206d696c6573746f6e6520726571756972656400600082015250565b6000612f28601f83612050565b9150612f3382612ef2565b602082019050919050565b60006020820190508181036000830152612f5781612f1b565b9050919050565b7f476f616c20616d6f756e74206d75737420626520706f73697469766500000000600082015250565b6000612f94601c83612050565b9150612f9f82612f5e565b602082019050919050565b60006020820190508181036000830152612fc381612f87565b9050919050565b60008190508160005260206000209050919050565b60006020601f8301049050919050565b600082821b905092915050565b60006008830261302c7fffffffffffffffffffffffffffffffffffffffffffffffffffffffffffffffff82612fef565b6130368683612fef565b95508019841693508086168417925050509392505050565b6000819050919050565b600061307361306e61306984611f63565b61304e565b611f63565b9050919050565b6000819050919050565b61308d83613058565b6130a16130998261307a565b848454612ffc565b825550505050565b600090565b6130b66130a9565b6130c1818484613084565b505050565b5b818110156130e5576130da6000826130ae565b6001810190506130c7565b5050565b601f82111561312a576130fb81612fca565b61310484612fdf565b81016020851015613113578190505b61312761311f85612fdf565b8301826130c6565b50505b505050565b600082821c905092915050565b600061314d6000198460080261312f565b1980831691505092915050565b6000613166838361313c565b9150826002028217905092915050565b61317f82612045565b67ffffffffffffffff8111156131985761319761237e565b5b6131a2825461278c565b6131ad8282856130e9565b600060209050601f8311600181146131e057600084156131ce578287015190505b6131d8858261315a565b865550613240565b601f1984166131ee86612fca565b60005b82811015613216578489015182556001820191506020850194506020810190506131f1565b86831015613233578489015161322f601f89168261313c565b8355505b6001600288020188555050505b505050505050565b600061325382611f63565b915061325e83611f63565b9250828203905081811115613276576132756126e6565b5b92915050565b60006060820190506132916000830186611f6d565b61329e6020830185612036565b81810360408301526132b0818461209c565b9050949350505050565b7f43616d706169676e20697320616c72656164792073746f707065640000000000600082015250565b60006132f0601b83612050565b91506132fb826132ba565b602082019050919050565b6000602082019050818103600083015261331f816132e3565b9050919050565b7f43616d706169676e206973206e6f742061637469766500000000000000000000600082015250565b600061335c601683612050565b915061336782613326565b602082019050919050565b6000602082019050818103600083015261338b8161334f565b9050919050565b7f446f6e6174696f6e20616d6f756e74206d75737420626520706f736974697665600082015250565b60006133c8602083612050565b91506133d382613392565b602082019050919050565b600060208201905081810360008301526133f7816133bb565b9050919050565b600061340982611f63565b915061341483611f63565b925082820190508082111561342c5761342b6126e6565b5b92915050565b60006060820190506134476000830186611f6d565b6134546020830185612036565b6134616040830184611f6d565b94935050505056fea2646970667358221220af3311ef329dd26e66f26d7f73bf9faa849408b1c5c1a4835b477926465b3c4c64736f6c63430008140033",
  "linkReferences": {},
  "deployedLinkReferences": {}
}